{
  "_format": "hh-sol-artifact-1",
  "contractName": "MyEpicGame",
  "sourceName": "contracts/MyEpicGame.sol",
  "abi": [
    {
      "inputs": [
        {
          "internalType": "string[]",
          "name": "characterNames",
          "type": "string[]"
        },
        {
          "internalType": "string[]",
          "name": "characterImageURIs",
          "type": "string[]"
        },
        {
          "internalType": "uint256[]",
          "name": "characterHP",
          "type": "uint256[]"
        },
        {
          "internalType": "uint256[]",
          "name": "characterAttackDamage",
          "type": "uint256[]"
        },
        {
          "internalType": "string",
          "name": "bossName",
          "type": "string"
        },
        {
          "internalType": "string",
          "name": "bossImageURI",
          "type": "string"
        },
        {
          "internalType": "uint256",
          "name": "bossHp",
          "type": "uint256"
        },
        {
          "internalType": "uint256",
          "name": "bossAttackDamage",
          "type": "uint256"
        }
      ],
      "stateMutability": "nonpayable",
      "type": "constructor"
    },
    {
      "anonymous": false,
      "inputs": [
        {
          "indexed": true,
          "internalType": "address",
          "name": "owner",
          "type": "address"
        },
        {
          "indexed": true,
          "internalType": "address",
          "name": "approved",
          "type": "address"
        },
        {
          "indexed": true,
          "internalType": "uint256",
          "name": "tokenId",
          "type": "uint256"
        }
      ],
      "name": "Approval",
      "type": "event"
    },
    {
      "anonymous": false,
      "inputs": [
        {
          "indexed": true,
          "internalType": "address",
          "name": "owner",
          "type": "address"
        },
        {
          "indexed": true,
          "internalType": "address",
          "name": "operator",
          "type": "address"
        },
        {
          "indexed": false,
          "internalType": "bool",
          "name": "approved",
          "type": "bool"
        }
      ],
      "name": "ApprovalForAll",
      "type": "event"
    },
    {
      "anonymous": false,
      "inputs": [
        {
          "indexed": false,
          "internalType": "uint256",
          "name": "newBossHp",
          "type": "uint256"
        },
        {
          "indexed": false,
          "internalType": "uint256",
          "name": "newPlayerHp",
          "type": "uint256"
        }
      ],
      "name": "AttackComplete",
      "type": "event"
    },
    {
      "anonymous": false,
      "inputs": [
        {
          "indexed": false,
          "internalType": "address",
          "name": "sender",
          "type": "address"
        },
        {
          "indexed": false,
          "internalType": "uint256",
          "name": "tokenId",
          "type": "uint256"
        },
        {
          "indexed": false,
          "internalType": "uint256",
          "name": "characterIndex",
          "type": "uint256"
        }
      ],
      "name": "CharacterNFTMinted",
      "type": "event"
    },
    {
      "anonymous": false,
      "inputs": [
        {
          "indexed": true,
          "internalType": "address",
          "name": "from",
          "type": "address"
        },
        {
          "indexed": true,
          "internalType": "address",
          "name": "to",
          "type": "address"
        },
        {
          "indexed": true,
          "internalType": "uint256",
          "name": "tokenId",
          "type": "uint256"
        }
      ],
      "name": "Transfer",
      "type": "event"
    },
    {
      "inputs": [
        {
          "internalType": "address",
          "name": "to",
          "type": "address"
        },
        {
          "internalType": "uint256",
          "name": "tokenId",
          "type": "uint256"
        }
      ],
      "name": "approve",
      "outputs": [],
      "stateMutability": "nonpayable",
      "type": "function"
    },
    {
      "inputs": [],
      "name": "attackBoss",
      "outputs": [],
      "stateMutability": "nonpayable",
      "type": "function"
    },
    {
      "inputs": [
        {
          "internalType": "address",
          "name": "owner",
          "type": "address"
        }
      ],
      "name": "balanceOf",
      "outputs": [
        {
          "internalType": "uint256",
          "name": "",
          "type": "uint256"
        }
      ],
      "stateMutability": "view",
      "type": "function"
    },
    {
      "inputs": [],
      "name": "bigboss",
      "outputs": [
        {
          "internalType": "string",
          "name": "name",
          "type": "string"
        },
        {
          "internalType": "string",
          "name": "imageURI",
          "type": "string"
        },
        {
          "internalType": "uint256",
          "name": "hp",
          "type": "uint256"
        },
        {
          "internalType": "uint256",
          "name": "maxHp",
          "type": "uint256"
        },
        {
          "internalType": "uint256",
          "name": "attackDamage",
          "type": "uint256"
        }
      ],
      "stateMutability": "view",
      "type": "function"
    },
    {
      "inputs": [],
      "name": "checkIfUserHasNFT",
      "outputs": [
        {
          "components": [
            {
              "internalType": "uint256",
              "name": "charchterIndex",
              "type": "uint256"
            },
            {
              "internalType": "string",
              "name": "name",
              "type": "string"
            },
            {
              "internalType": "string",
              "name": "imageURI",
              "type": "string"
            },
            {
              "internalType": "uint256",
              "name": "hp",
              "type": "uint256"
            },
            {
              "internalType": "uint256",
              "name": "maxHp",
              "type": "uint256"
            },
            {
              "internalType": "uint256",
              "name": "attackDamage",
              "type": "uint256"
            }
          ],
          "internalType": "struct MyEpicGame.CharacterAttributes",
          "name": "",
          "type": "tuple"
        }
      ],
      "stateMutability": "view",
      "type": "function"
    },
    {
      "inputs": [],
      "name": "getAllDefaultCharacters",
      "outputs": [
        {
          "components": [
            {
              "internalType": "uint256",
              "name": "charchterIndex",
              "type": "uint256"
            },
            {
              "internalType": "string",
              "name": "name",
              "type": "string"
            },
            {
              "internalType": "string",
              "name": "imageURI",
              "type": "string"
            },
            {
              "internalType": "uint256",
              "name": "hp",
              "type": "uint256"
            },
            {
              "internalType": "uint256",
              "name": "maxHp",
              "type": "uint256"
            },
            {
              "internalType": "uint256",
              "name": "attackDamage",
              "type": "uint256"
            }
          ],
          "internalType": "struct MyEpicGame.CharacterAttributes[]",
          "name": "",
          "type": "tuple[]"
        }
      ],
      "stateMutability": "view",
      "type": "function"
    },
    {
      "inputs": [
        {
          "internalType": "uint256",
          "name": "tokenId",
          "type": "uint256"
        }
      ],
      "name": "getApproved",
      "outputs": [
        {
          "internalType": "address",
          "name": "",
          "type": "address"
        }
      ],
      "stateMutability": "view",
      "type": "function"
    },
    {
      "inputs": [],
      "name": "getBigBoss",
      "outputs": [
        {
          "components": [
            {
              "internalType": "string",
              "name": "name",
              "type": "string"
            },
            {
              "internalType": "string",
              "name": "imageURI",
              "type": "string"
            },
            {
              "internalType": "uint256",
              "name": "hp",
              "type": "uint256"
            },
            {
              "internalType": "uint256",
              "name": "maxHp",
              "type": "uint256"
            },
            {
              "internalType": "uint256",
              "name": "attackDamage",
              "type": "uint256"
            }
          ],
          "internalType": "struct MyEpicGame.BigBoss",
          "name": "",
          "type": "tuple"
        }
      ],
      "stateMutability": "view",
      "type": "function"
    },
    {
      "inputs": [
        {
          "internalType": "address",
          "name": "owner",
          "type": "address"
        },
        {
          "internalType": "address",
          "name": "operator",
          "type": "address"
        }
      ],
      "name": "isApprovedForAll",
      "outputs": [
        {
          "internalType": "bool",
          "name": "",
          "type": "bool"
        }
      ],
      "stateMutability": "view",
      "type": "function"
    },
    {
      "inputs": [
        {
          "internalType": "uint256",
          "name": "_characterIndex",
          "type": "uint256"
        }
      ],
      "name": "mintCharacterNFT",
      "outputs": [],
      "stateMutability": "nonpayable",
      "type": "function"
    },
    {
      "inputs": [],
      "name": "name",
      "outputs": [
        {
          "internalType": "string",
          "name": "",
          "type": "string"
        }
      ],
      "stateMutability": "view",
      "type": "function"
    },
    {
      "inputs": [
        {
          "internalType": "uint256",
          "name": "",
          "type": "uint256"
        }
      ],
      "name": "nftHolderAttributes",
      "outputs": [
        {
          "internalType": "uint256",
          "name": "charchterIndex",
          "type": "uint256"
        },
        {
          "internalType": "string",
          "name": "name",
          "type": "string"
        },
        {
          "internalType": "string",
          "name": "imageURI",
          "type": "string"
        },
        {
          "internalType": "uint256",
          "name": "hp",
          "type": "uint256"
        },
        {
          "internalType": "uint256",
          "name": "maxHp",
          "type": "uint256"
        },
        {
          "internalType": "uint256",
          "name": "attackDamage",
          "type": "uint256"
        }
      ],
      "stateMutability": "view",
      "type": "function"
    },
    {
      "inputs": [
        {
          "internalType": "address",
          "name": "",
          "type": "address"
        }
      ],
      "name": "nftHolders",
      "outputs": [
        {
          "internalType": "uint256",
          "name": "",
          "type": "uint256"
        }
      ],
      "stateMutability": "view",
      "type": "function"
    },
    {
      "inputs": [
        {
          "internalType": "uint256",
          "name": "tokenId",
          "type": "uint256"
        }
      ],
      "name": "ownerOf",
      "outputs": [
        {
          "internalType": "address",
          "name": "",
          "type": "address"
        }
      ],
      "stateMutability": "view",
      "type": "function"
    },
    {
      "inputs": [
        {
          "internalType": "address",
          "name": "from",
          "type": "address"
        },
        {
          "internalType": "address",
          "name": "to",
          "type": "address"
        },
        {
          "internalType": "uint256",
          "name": "tokenId",
          "type": "uint256"
        }
      ],
      "name": "safeTransferFrom",
      "outputs": [],
      "stateMutability": "nonpayable",
      "type": "function"
    },
    {
      "inputs": [
        {
          "internalType": "address",
          "name": "from",
          "type": "address"
        },
        {
          "internalType": "address",
          "name": "to",
          "type": "address"
        },
        {
          "internalType": "uint256",
          "name": "tokenId",
          "type": "uint256"
        },
        {
          "internalType": "bytes",
          "name": "_data",
          "type": "bytes"
        }
      ],
      "name": "safeTransferFrom",
      "outputs": [],
      "stateMutability": "nonpayable",
      "type": "function"
    },
    {
      "inputs": [
        {
          "internalType": "address",
          "name": "operator",
          "type": "address"
        },
        {
          "internalType": "bool",
          "name": "approved",
          "type": "bool"
        }
      ],
      "name": "setApprovalForAll",
      "outputs": [],
      "stateMutability": "nonpayable",
      "type": "function"
    },
    {
      "inputs": [
        {
          "internalType": "bytes4",
          "name": "interfaceId",
          "type": "bytes4"
        }
      ],
      "name": "supportsInterface",
      "outputs": [
        {
          "internalType": "bool",
          "name": "",
          "type": "bool"
        }
      ],
      "stateMutability": "view",
      "type": "function"
    },
    {
      "inputs": [],
      "name": "symbol",
      "outputs": [
        {
          "internalType": "string",
          "name": "",
          "type": "string"
        }
      ],
      "stateMutability": "view",
      "type": "function"
    },
    {
      "inputs": [
        {
          "internalType": "uint256",
          "name": "_tokenId",
          "type": "uint256"
        }
      ],
      "name": "tokenURI",
      "outputs": [
        {
          "internalType": "string",
          "name": "",
          "type": "string"
        }
      ],
      "stateMutability": "view",
      "type": "function"
    },
    {
      "inputs": [
        {
          "internalType": "address",
          "name": "from",
          "type": "address"
        },
        {
          "internalType": "address",
          "name": "to",
          "type": "address"
        },
        {
          "internalType": "uint256",
          "name": "tokenId",
          "type": "uint256"
        }
      ],
      "name": "transferFrom",
      "outputs": [],
      "stateMutability": "nonpayable",
      "type": "function"
    }
  ],
  "bytecode": "0x60806040523480156200001157600080fd5b5060405162005a8338038062005a83833981810160405281019062000037919062000b2b565b6040518060400160405280600681526020017f44776967687400000000000000000000000000000000000000000000000000008152506040518060400160405280600681526020017f44574947485400000000000000000000000000000000000000000000000000008152508160009080519060200190620000bb929190620008be565b508060019080519060200190620000d4929190620008be565b5050506040518060a0016040528085815260200184815260200183815260200183815260200182815250600a60008201518160000190805190602001906200011e929190620008be565b5060208201518160010190805190602001906200013d929190620008be565b50604082015181600201556060820151816003015560808201518160040155905050620002c06040518060600160405280602a815260200162005a59602a9139600a60000180546200018f9062000e75565b80601f0160208091040260200160405190810160405280929190818152602001828054620001bd9062000e75565b80156200020e5780601f10620001e2576101008083540402835291602001916200020e565b820191906000526020600020905b815481529060010190602001808311620001f057829003601f168201915b5050505050600a60020154600a60010180546200022b9062000e75565b80601f0160208091040260200160405190810160405280929190818152602001828054620002599062000e75565b8015620002aa5780601f106200027e57610100808354040283529160200191620002aa565b820191906000526020600020905b8154815290600101906020018083116200028c57829003601f168201915b50505050506200073060201b62001c311760201c565b60005b8851811015620006db5760076040518060c001604052808381526020018b84815181106200031a577f4e487b7100000000000000000000000000000000000000000000000000000000600052603260045260246000fd5b602002602001015181526020018a848151811062000361577f4e487b7100000000000000000000000000000000000000000000000000000000600052603260045260246000fd5b60200260200101518152602001898481518110620003a8577f4e487b7100000000000000000000000000000000000000000000000000000000600052603260045260246000fd5b60200260200101518152602001898481518110620003ef577f4e487b7100000000000000000000000000000000000000000000000000000000600052603260045260246000fd5b6020026020010151815260200188848151811062000436577f4e487b7100000000000000000000000000000000000000000000000000000000600052603260045260246000fd5b6020026020010151815250908060018154018082558091505060019003906000526020600020906006020160009091909190915060008201518160000155602082015181600101908051906020019062000492929190620008be565b506040820151816002019080519060200190620004b1929190620008be565b50606082015181600301556080820151816004015560a0820151816005015550506000600782815481106200050f577f4e487b7100000000000000000000000000000000000000000000000000000000600052603260045260246000fd5b90600052602060002090600602016040518060c001604052908160008201548152602001600182018054620005449062000e75565b80601f0160208091040260200160405190810160405280929190818152602001828054620005729062000e75565b8015620005c35780601f106200059757610100808354040283529160200191620005c3565b820191906000526020600020905b815481529060010190602001808311620005a557829003601f168201915b50505050508152602001600282018054620005de9062000e75565b80601f01602080910402602001604051908101604052809291908181526020018280546200060c9062000e75565b80156200065d5780601f1062000631576101008083540402835291602001916200065d565b820191906000526020600020905b8154815290600101906020018083116200063f57829003601f168201915b5050505050815260200160038201548152602001600482015481526020016005820154815250509050620006c460405180606001604052806025815260200162005a05602591398260200151836060015184604001516200073060201b62001c311760201c565b508080620006d29062000ee1565b915050620002c3565b50620006f36006620007dc60201b62001cd31760201c565b620007226040518060600160405280602f815260200162005a2a602f9139620007f260201b62001ce91760201c565b505050505050505062000fe7565b620007d6848484846040516024016200074d949392919062000cfa565b6040516020818303038152906040527f8d142cdd000000000000000000000000000000000000000000000000000000007bffffffffffffffffffffffffffffffffffffffffffffffffffffffff19166020820180517bffffffffffffffffffffffffffffffffffffffffffffffffffffffff83818316178352505050506200089560201b60201c565b50505050565b6001816000016000828254019250508190555050565b620008928160405160240162000809919062000cd6565b6040516020818303038152906040527f41304fac000000000000000000000000000000000000000000000000000000007bffffffffffffffffffffffffffffffffffffffffffffffffffffffff19166020820180517bffffffffffffffffffffffffffffffffffffffffffffffffffffffff83818316178352505050506200089560201b60201c565b50565b60008151905060006a636f6e736f6c652e6c6f679050602083016000808483855afa5050505050565b828054620008cc9062000e75565b90600052602060002090601f016020900481019282620008f057600085556200093c565b82601f106200090b57805160ff19168380011785556200093c565b828001600101855582156200093c579182015b828111156200093b5782518255916020019190600101906200091e565b5b5090506200094b91906200094f565b5090565b5b808211156200096a57600081600090555060010162000950565b5090565b6000620009856200097f8462000d85565b62000d5c565b9050808382526020820190508260005b85811015620009c95781518501620009ae888262000ae7565b84526020840193506020830192505060018101905062000995565b5050509392505050565b6000620009ea620009e48462000db4565b62000d5c565b9050808382526020820190508285602086028201111562000a0a57600080fd5b60005b8581101562000a3e578162000a23888262000b14565b84526020840193506020830192505060018101905062000a0d565b5050509392505050565b600062000a5f62000a598462000de3565b62000d5c565b90508281526020810184848401111562000a7857600080fd5b62000a8584828562000e3f565b509392505050565b600082601f83011262000a9f57600080fd5b815162000ab18482602086016200096e565b91505092915050565b600082601f83011262000acc57600080fd5b815162000ade848260208601620009d3565b91505092915050565b600082601f83011262000af957600080fd5b815162000b0b84826020860162000a48565b91505092915050565b60008151905062000b258162000fcd565b92915050565b600080600080600080600080610100898b03121562000b4957600080fd5b600089015167ffffffffffffffff81111562000b6457600080fd5b62000b728b828c0162000a8d565b985050602089015167ffffffffffffffff81111562000b9057600080fd5b62000b9e8b828c0162000a8d565b975050604089015167ffffffffffffffff81111562000bbc57600080fd5b62000bca8b828c0162000aba565b965050606089015167ffffffffffffffff81111562000be857600080fd5b62000bf68b828c0162000aba565b955050608089015167ffffffffffffffff81111562000c1457600080fd5b62000c228b828c0162000ae7565b94505060a089015167ffffffffffffffff81111562000c4057600080fd5b62000c4e8b828c0162000ae7565b93505060c062000c618b828c0162000b14565b92505060e062000c748b828c0162000b14565b9150509295985092959890939650565b600062000c918262000e19565b62000c9d818562000e24565b935062000caf81856020860162000e3f565b62000cba8162000fbc565b840191505092915050565b62000cd08162000e35565b82525050565b6000602082019050818103600083015262000cf2818462000c84565b905092915050565b6000608082019050818103600083015262000d16818762000c84565b9050818103602083015262000d2c818662000c84565b905062000d3d604083018562000cc5565b818103606083015262000d51818462000c84565b905095945050505050565b600062000d6862000d7b565b905062000d76828262000eab565b919050565b6000604051905090565b600067ffffffffffffffff82111562000da35762000da262000f8d565b5b602082029050602081019050919050565b600067ffffffffffffffff82111562000dd25762000dd162000f8d565b5b602082029050602081019050919050565b600067ffffffffffffffff82111562000e015762000e0062000f8d565b5b62000e0c8262000fbc565b9050602081019050919050565b600081519050919050565b600082825260208201905092915050565b6000819050919050565b60005b8381101562000e5f57808201518184015260208101905062000e42565b8381111562000e6f576000848401525b50505050565b6000600282049050600182168062000e8e57607f821691505b6020821081141562000ea55762000ea462000f5e565b5b50919050565b62000eb68262000fbc565b810181811067ffffffffffffffff8211171562000ed85762000ed762000f8d565b5b80604052505050565b600062000eee8262000e35565b91507fffffffffffffffffffffffffffffffffffffffffffffffffffffffffffffffff82141562000f245762000f2362000f2f565b5b600182019050919050565b7f4e487b7100000000000000000000000000000000000000000000000000000000600052601160045260246000fd5b7f4e487b7100000000000000000000000000000000000000000000000000000000600052602260045260246000fd5b7f4e487b7100000000000000000000000000000000000000000000000000000000600052604160045260246000fd5b6000601f19601f8301169050919050565b62000fd88162000e35565b811462000fe457600080fd5b50565b614a0e8062000ff76000396000f3fe608060405234801561001057600080fd5b50600436106101375760003560e01c80638d028f9d116100b8578063b953084e1161007c578063b953084e14610369578063c87b56dd14610387578063c8cf27f4146103b7578063d4f24c5b146103d5578063e985e9c5146103df578063f8b81ef71461040f57610137565b80638d028f9d146102bc57806395d89b41146102de57806398da4c95146102fc578063a22cb46514610331578063b88d4fde1461034d57610137565b806323b872dd116100ff57806323b872dd146101f457806342842e0e146102105780636352211e1461022c57806370a082311461025c5780637df124a11461028c57610137565b806301ffc9a71461013c5780630665f9611461016c57806306fdde031461018a578063081812fc146101a8578063095ea7b3146101d8575b600080fd5b6101566004803603810190610151919061313d565b61042b565b60405161016391906139a2565b60405180910390f35b61017461050d565b6040516101819190613d3b565b60405180910390f35b610192610669565b60405161019f91906139bd565b60405180910390f35b6101c260048036038101906101bd919061318f565b6106fb565b6040516101cf91906138e2565b60405180910390f35b6101f260048036038101906101ed9190613101565b610780565b005b61020e60048036038101906102099190612ffb565b610898565b005b61022a60048036038101906102259190612ffb565b6108f8565b005b6102466004803603810190610241919061318f565b610918565b60405161025391906138e2565b60405180910390f35b61027660048036038101906102719190612f96565b6109ca565b6040516102839190613d7f565b60405180910390f35b6102a660048036038101906102a19190612f96565b610a82565b6040516102b39190613d7f565b60405180910390f35b6102c4610a9a565b6040516102d5959493929190613a8c565b60405180910390f35b6102e6610bce565b6040516102f391906139bd565b60405180910390f35b6103166004803603810190610311919061318f565b610c60565b60405161032896959493929190613d9a565b60405180910390f35b61034b600480360381019061034691906130c5565b610dac565b005b6103676004803603810190610362919061304a565b610dc2565b005b610371610e24565b60405161037e9190613980565b60405180910390f35b6103a1600480360381019061039c919061318f565b610fcf565b6040516103ae91906139bd565b60405180910390f35b6103bf6111ea565b6040516103cc9190613d5d565b60405180910390f35b6103dd6113c2565b005b6103f960048036038101906103f49190612fbf565b6117a9565b60405161040691906139a2565b60405180910390f35b6104296004803603810190610424919061318f565b61183d565b005b60007f80ac58cd000000000000000000000000000000000000000000000000000000007bffffffffffffffffffffffffffffffffffffffffffffffffffffffff1916827bffffffffffffffffffffffffffffffffffffffffffffffffffffffff191614806104f657507f5b5e139f000000000000000000000000000000000000000000000000000000007bffffffffffffffffffffffffffffffffffffffffffffffffffffffff1916827bffffffffffffffffffffffffffffffffffffffffffffffffffffffff1916145b80610506575061050582611d82565b5b9050919050565b610515612dbd565b600a6040518060a0016040529081600082018054610532906140e0565b80601f016020809104026020016040519081016040528092919081815260200182805461055e906140e0565b80156105ab5780601f10610580576101008083540402835291602001916105ab565b820191906000526020600020905b81548152906001019060200180831161058e57829003601f168201915b505050505081526020016001820180546105c4906140e0565b80601f01602080910402602001604051908101604052809291908181526020018280546105f0906140e0565b801561063d5780601f106106125761010080835404028352916020019161063d565b820191906000526020600020905b81548152906001019060200180831161062057829003601f168201915b505050505081526020016002820154815260200160038201548152602001600482015481525050905090565b606060008054610678906140e0565b80601f01602080910402602001604051908101604052809291908181526020018280546106a4906140e0565b80156106f15780601f106106c6576101008083540402835291602001916106f1565b820191906000526020600020905b8154815290600101906020018083116106d457829003601f168201915b5050505050905090565b600061070682611dec565b610745576040517f08c379a000000000000000000000000000000000000000000000000000000000815260040161073c90613cbb565b60405180910390fd5b6004600083815260200190815260200160002060009054906101000a900473ffffffffffffffffffffffffffffffffffffffff169050919050565b600061078b82610918565b90508073ffffffffffffffffffffffffffffffffffffffff168373ffffffffffffffffffffffffffffffffffffffff1614156107fc576040517f08c379a00000000000000000000000000000000000000000000000000000000081526004016107f390613cfb565b60405180910390fd5b8073ffffffffffffffffffffffffffffffffffffffff1661081b611e58565b73ffffffffffffffffffffffffffffffffffffffff16148061084a575061084981610844611e58565b6117a9565b5b610889576040517f08c379a000000000000000000000000000000000000000000000000000000000815260040161088090613c1b565b60405180910390fd5b6108938383611e60565b505050565b6108a96108a3611e58565b82611f19565b6108e8576040517f08c379a00000000000000000000000000000000000000000000000000000000081526004016108df90613d1b565b60405180910390fd5b6108f3838383611ff7565b505050565b61091383838360405180602001604052806000815250610dc2565b505050565b6000806002600084815260200190815260200160002060009054906101000a900473ffffffffffffffffffffffffffffffffffffffff169050600073ffffffffffffffffffffffffffffffffffffffff168173ffffffffffffffffffffffffffffffffffffffff1614156109c1576040517f08c379a00000000000000000000000000000000000000000000000000000000081526004016109b890613c5b565b60405180910390fd5b80915050919050565b60008073ffffffffffffffffffffffffffffffffffffffff168273ffffffffffffffffffffffffffffffffffffffff161415610a3b576040517f08c379a0000000000000000000000000000000000000000000000000000000008152600401610a3290613c3b565b60405180910390fd5b600360008373ffffffffffffffffffffffffffffffffffffffff1673ffffffffffffffffffffffffffffffffffffffff168152602001908152602001600020549050919050565b60096020528060005260406000206000915090505481565b600a806000018054610aab906140e0565b80601f0160208091040260200160405190810160405280929190818152602001828054610ad7906140e0565b8015610b245780601f10610af957610100808354040283529160200191610b24565b820191906000526020600020905b815481529060010190602001808311610b0757829003601f168201915b505050505090806001018054610b39906140e0565b80601f0160208091040260200160405190810160405280929190818152602001828054610b65906140e0565b8015610bb25780601f10610b8757610100808354040283529160200191610bb2565b820191906000526020600020905b815481529060010190602001808311610b9557829003601f168201915b5050505050908060020154908060030154908060040154905085565b606060018054610bdd906140e0565b80601f0160208091040260200160405190810160405280929190818152602001828054610c09906140e0565b8015610c565780601f10610c2b57610100808354040283529160200191610c56565b820191906000526020600020905b815481529060010190602001808311610c3957829003601f168201915b5050505050905090565b6008602052806000526040600020600091509050806000015490806001018054610c89906140e0565b80601f0160208091040260200160405190810160405280929190818152602001828054610cb5906140e0565b8015610d025780601f10610cd757610100808354040283529160200191610d02565b820191906000526020600020905b815481529060010190602001808311610ce557829003601f168201915b505050505090806002018054610d17906140e0565b80601f0160208091040260200160405190810160405280929190818152602001828054610d43906140e0565b8015610d905780601f10610d6557610100808354040283529160200191610d90565b820191906000526020600020905b815481529060010190602001808311610d7357829003601f168201915b5050505050908060030154908060040154908060050154905086565b610dbe610db7611e58565b838361225e565b5050565b610dd3610dcd611e58565b83611f19565b610e12576040517f08c379a0000000000000000000000000000000000000000000000000000000008152600401610e0990613d1b565b60405180910390fd5b610e1e848484846123cb565b50505050565b60606007805480602002602001604051908101604052809291908181526020016000905b82821015610fc657838290600052602060002090600602016040518060c001604052908160008201548152602001600182018054610e85906140e0565b80601f0160208091040260200160405190810160405280929190818152602001828054610eb1906140e0565b8015610efe5780601f10610ed357610100808354040283529160200191610efe565b820191906000526020600020905b815481529060010190602001808311610ee157829003601f168201915b50505050508152602001600282018054610f17906140e0565b80601f0160208091040260200160405190810160405280929190818152602001828054610f43906140e0565b8015610f905780601f10610f6557610100808354040283529160200191610f90565b820191906000526020600020905b815481529060010190602001808311610f7357829003601f168201915b50505050508152602001600382015481526020016004820154815260200160058201548152505081526020019060010190610e48565b50505050905090565b60606000600860008481526020019081526020016000206040518060c00160405290816000820154815260200160018201805461100b906140e0565b80601f0160208091040260200160405190810160405280929190818152602001828054611037906140e0565b80156110845780601f1061105957610100808354040283529160200191611084565b820191906000526020600020905b81548152906001019060200180831161106757829003601f168201915b5050505050815260200160028201805461109d906140e0565b80601f01602080910402602001604051908101604052809291908181526020018280546110c9906140e0565b80156111165780601f106110eb57610100808354040283529160200191611116565b820191906000526020600020905b8154815290600101906020018083116110f957829003601f168201915b5050505050815260200160038201548152602001600482015481526020016005820154815250509050600061114e8260600151612427565b9050600061115f8360800151612427565b905060006111708460a00151612427565b905060006111b6856020015161118589612427565b87604001518787876040516020016111a29695949392919061381b565b6040516020818303038152906040526125d4565b90506000816040516020016111cb91906138c0565b6040516020818303038152906040529050809650505050505050919050565b6111f2612dec565b6000600960003373ffffffffffffffffffffffffffffffffffffffff1673ffffffffffffffffffffffffffffffffffffffff16815260200190815260200160002054905060008111156113b157600860008281526020019081526020016000206040518060c001604052908160008201548152602001600182018054611277906140e0565b80601f01602080910402602001604051908101604052809291908181526020018280546112a3906140e0565b80156112f05780601f106112c5576101008083540402835291602001916112f0565b820191906000526020600020905b8154815290600101906020018083116112d357829003601f168201915b50505050508152602001600282018054611309906140e0565b80601f0160208091040260200160405190810160405280929190818152602001828054611335906140e0565b80156113825780601f1061135757610100808354040283529160200191611382565b820191906000526020600020905b81548152906001019060200180831161136557829003601f168201915b5050505050815260200160038201548152602001600482015481526020016005820154815250509150506113bf565b6113b9612dec565b80925050505b90565b6000600960003373ffffffffffffffffffffffffffffffffffffffff1673ffffffffffffffffffffffffffffffffffffffff1681526020019081526020016000205490506114456040518060400160405280601981526020017f4e465420506c6179657220746f6b656e2049642069732025730000000000000081525082612792565b600060086000838152602001908152602001600020905061151460405180608001604052806049815260200161499060499139826001018054611487906140e0565b80601f01602080910402602001604051908101604052809291908181526020018280546114b3906140e0565b80156115005780601f106114d557610100808354040283529160200191611500565b820191906000526020600020905b8154815290600101906020018083116114e357829003601f168201915b50505050508360030154846005015461282e565b6115cf6040518060600160405280602c81526020016148f6602c9139600a6000018054611540906140e0565b80601f016020809104026020016040519081016040528092919081815260200182805461156c906140e0565b80156115b95780601f1061158e576101008083540402835291602001916115b9565b820191906000526020600020905b81548152906001019060200180831161159c57829003601f168201915b5050505050600a60020154600a6004015461282e565b6000816003015411611616576040517f08c379a000000000000000000000000000000000000000000000000000000000815260040161160d90613c7b565b60405180910390fd5b6000600a600201541161165e576040517f08c379a000000000000000000000000000000000000000000000000000000000815260040161165590613cdb565b60405180910390fd5b8060050154600a60020154101561167f576000600a6002018190555061169e565b8060050154600a600201546116949190613ff6565b600a600201819055505b600a60040154816003015410156116be57600081600301819055506116dc565b600a6004015481600301546116d39190613ff6565b81600301819055505b6117206040518060400160405280601e81526020017f41667465722061747461636b696e673a20426f73732048502069732025730000815250600a60020154612792565b6117636040518060400160405280602081526020017f41667465722061747461636b696e673a20506c617965722048502069732025738152508260030154612792565b7f838ab28464562786a6c4ab2311964b82fa60bd9b14aa7e856af1f3f18d41a414600a60020154826003015460405161179d929190613e09565b60405180910390a15050565b6000600560008473ffffffffffffffffffffffffffffffffffffffff1673ffffffffffffffffffffffffffffffffffffffff16815260200190815260200160002060008373ffffffffffffffffffffffffffffffffffffffff1673ffffffffffffffffffffffffffffffffffffffff16815260200190815260200160002060009054906101000a900460ff16905092915050565b600061184960066128d0565b905061185533826128de565b6040518060c00160405280838152602001600784815481106118a0577f4e487b7100000000000000000000000000000000000000000000000000000000600052603260045260246000fd5b906000526020600020906006020160010180546118bc906140e0565b80601f01602080910402602001604051908101604052809291908181526020018280546118e8906140e0565b80156119355780601f1061190a57610100808354040283529160200191611935565b820191906000526020600020905b81548152906001019060200180831161191857829003601f168201915b5050505050815260200160078481548110611979577f4e487b7100000000000000000000000000000000000000000000000000000000600052603260045260246000fd5b90600052602060002090600602016002018054611995906140e0565b80601f01602080910402602001604051908101604052809291908181526020018280546119c1906140e0565b8015611a0e5780601f106119e357610100808354040283529160200191611a0e565b820191906000526020600020905b8154815290600101906020018083116119f157829003601f168201915b5050505050815260200160078481548110611a52577f4e487b7100000000000000000000000000000000000000000000000000000000600052603260045260246000fd5b906000526020600020906006020160030154815260200160078481548110611aa3577f4e487b7100000000000000000000000000000000000000000000000000000000600052603260045260246000fd5b906000526020600020906006020160040154815260200160078481548110611af4577f4e487b7100000000000000000000000000000000000000000000000000000000600052603260045260246000fd5b90600052602060002090600602016005015481525060086000838152602001908152602001600020600082015181600001556020820151816001019080519060200190611b42929190612e22565b506040820151816002019080519060200190611b5f929190612e22565b50606082015181600301556080820151816004015560a08201518160050155905050611ba46040518060600160405280602e8152602001614962602e913982846128fc565b80600960003373ffffffffffffffffffffffffffffffffffffffff1673ffffffffffffffffffffffffffffffffffffffff16815260200190815260200160002081905550611bf26006611cd3565b7f4bc303fd457a97b4691b9af582ce71868a3d258638c8d4f8c60988a0f0bfb8cd338284604051611c2593929190613949565b60405180910390a15050565b611ccd84848484604051602401611c4b94939291906139df565b6040516020818303038152906040527f8d142cdd000000000000000000000000000000000000000000000000000000007bffffffffffffffffffffffffffffffffffffffffffffffffffffffff19166020820180517bffffffffffffffffffffffffffffffffffffffffffffffffffffffff838183161783525050505061299b565b50505050565b6001816000016000828254019250508190555050565b611d7f81604051602401611cfd91906139bd565b6040516020818303038152906040527f41304fac000000000000000000000000000000000000000000000000000000007bffffffffffffffffffffffffffffffffffffffffffffffffffffffff19166020820180517bffffffffffffffffffffffffffffffffffffffffffffffffffffffff838183161783525050505061299b565b50565b60007f01ffc9a7000000000000000000000000000000000000000000000000000000007bffffffffffffffffffffffffffffffffffffffffffffffffffffffff1916827bffffffffffffffffffffffffffffffffffffffffffffffffffffffff1916149050919050565b60008073ffffffffffffffffffffffffffffffffffffffff166002600084815260200190815260200160002060009054906101000a900473ffffffffffffffffffffffffffffffffffffffff1673ffffffffffffffffffffffffffffffffffffffff1614159050919050565b600033905090565b816004600083815260200190815260200160002060006101000a81548173ffffffffffffffffffffffffffffffffffffffff021916908373ffffffffffffffffffffffffffffffffffffffff160217905550808273ffffffffffffffffffffffffffffffffffffffff16611ed383610918565b73ffffffffffffffffffffffffffffffffffffffff167f8c5be1e5ebec7d5bd14f71427d1e84f3dd0314c0f7b2291e5b200ac8c7c3b92560405160405180910390a45050565b6000611f2482611dec565b611f63576040517f08c379a0000000000000000000000000000000000000000000000000000000008152600401611f5a90613bfb565b60405180910390fd5b6000611f6e83610918565b90508073ffffffffffffffffffffffffffffffffffffffff168473ffffffffffffffffffffffffffffffffffffffff161480611fdd57508373ffffffffffffffffffffffffffffffffffffffff16611fc5846106fb565b73ffffffffffffffffffffffffffffffffffffffff16145b80611fee5750611fed81856117a9565b5b91505092915050565b8273ffffffffffffffffffffffffffffffffffffffff1661201782610918565b73ffffffffffffffffffffffffffffffffffffffff161461206d576040517f08c379a000000000000000000000000000000000000000000000000000000000815260040161206490613b7b565b60405180910390fd5b600073ffffffffffffffffffffffffffffffffffffffff168273ffffffffffffffffffffffffffffffffffffffff1614156120dd576040517f08c379a00000000000000000000000000000000000000000000000000000000081526004016120d490613bbb565b60405180910390fd5b6120e88383836129c4565b6120f3600082611e60565b6001600360008573ffffffffffffffffffffffffffffffffffffffff1673ffffffffffffffffffffffffffffffffffffffff16815260200190815260200160002060008282546121439190613ff6565b925050819055506001600360008473ffffffffffffffffffffffffffffffffffffffff1673ffffffffffffffffffffffffffffffffffffffff168152602001908152602001600020600082825461219a9190613f15565b92505081905550816002600083815260200190815260200160002060006101000a81548173ffffffffffffffffffffffffffffffffffffffff021916908373ffffffffffffffffffffffffffffffffffffffff160217905550808273ffffffffffffffffffffffffffffffffffffffff168473ffffffffffffffffffffffffffffffffffffffff167fddf252ad1be2c89b69c2b068fc378daa952ba7f163c4a11628f55a4df523b3ef60405160405180910390a46122598383836129c9565b505050565b8173ffffffffffffffffffffffffffffffffffffffff168373ffffffffffffffffffffffffffffffffffffffff1614156122cd576040517f08c379a00000000000000000000000000000000000000000000000000000000081526004016122c490613bdb565b60405180910390fd5b80600560008573ffffffffffffffffffffffffffffffffffffffff1673ffffffffffffffffffffffffffffffffffffffff16815260200190815260200160002060008473ffffffffffffffffffffffffffffffffffffffff1673ffffffffffffffffffffffffffffffffffffffff16815260200190815260200160002060006101000a81548160ff0219169083151502179055508173ffffffffffffffffffffffffffffffffffffffff168373ffffffffffffffffffffffffffffffffffffffff167f17307eab39ab6107e8899845ad3d59bd9653f200f220920489ca2b5937696c31836040516123be91906139a2565b60405180910390a3505050565b6123d6848484611ff7565b6123e2848484846129ce565b612421576040517f08c379a000000000000000000000000000000000000000000000000000000000815260040161241890613b5b565b60405180910390fd5b50505050565b6060600082141561246f576040518060400160405280600181526020017f300000000000000000000000000000000000000000000000000000000000000081525090506125cf565b600082905060005b600082146124a157808061248a90614143565b915050600a8261249a9190613f6b565b9150612477565b60008167ffffffffffffffff8111156124e3577f4e487b7100000000000000000000000000000000000000000000000000000000600052604160045260246000fd5b6040519080825280601f01601f1916602001820160405280156125155781602001600182028036833780820191505090505b5090505b600085146125c85760018261252e9190613ff6565b9150600a8561253d919061418c565b60306125499190613f15565b60f81b818381518110612585577f4e487b7100000000000000000000000000000000000000000000000000000000600052603260045260246000fd5b60200101907effffffffffffffffffffffffffffffffffffffffffffffffffffffffffffff1916908160001a905350600a856125c19190613f6b565b9450612519565b8093505050505b919050565b606060008251905060008114156125fd576040518060200160405280600081525091505061278d565b6000600360028361260e9190613f15565b6126189190613f6b565b60046126249190613f9c565b905060006020826126359190613f15565b67ffffffffffffffff811115612674577f4e487b7100000000000000000000000000000000000000000000000000000000600052604160045260246000fd5b6040519080825280601f01601f1916602001820160405280156126a65781602001600182028036833780820191505090505b5090506000604051806060016040528060408152602001614922604091399050600181016020830160005b8681101561274a5760038101905062ffffff818a015116603f8160121c168401518060081b905060ff603f83600c1c1686015116810190508060081b905060ff603f8360061c1686015116810190508060081b905060ff603f831686015116810190508060e01b905080845260048401935050506126d1565b50600386066001811461276457600281146127745761277f565b613d3d60f01b600283035261277f565b603d60f81b60018303525b508484525050819450505050505b919050565b61282a82826040516024016127a8929190613aed565b6040516020818303038152906040527f9710a9d0000000000000000000000000000000000000000000000000000000007bffffffffffffffffffffffffffffffffffffffffffffffffffffffff19166020820180517bffffffffffffffffffffffffffffffffffffffffffffffffffffffff838183161783525050505061299b565b5050565b6128ca848484846040516024016128489493929190613a39565b6040516020818303038152906040527fd5cf17d0000000000000000000000000000000000000000000000000000000007bffffffffffffffffffffffffffffffffffffffffffffffffffffffff19166020820180517bffffffffffffffffffffffffffffffffffffffffffffffffffffffff838183161783525050505061299b565b50505050565b600081600001549050919050565b6128f8828260405180602001604052806000815250612b65565b5050565b61299683838360405160240161291493929190613b1d565b6040516020818303038152906040527f969cdd03000000000000000000000000000000000000000000000000000000007bffffffffffffffffffffffffffffffffffffffffffffffffffffffff19166020820180517bffffffffffffffffffffffffffffffffffffffffffffffffffffffff838183161783525050505061299b565b505050565b60008151905060006a636f6e736f6c652e6c6f679050602083016000808483855afa5050505050565b505050565b505050565b60006129ef8473ffffffffffffffffffffffffffffffffffffffff16612bc0565b15612b58578373ffffffffffffffffffffffffffffffffffffffff1663150b7a02612a18611e58565b8786866040518563ffffffff1660e01b8152600401612a3a94939291906138fd565b602060405180830381600087803b158015612a5457600080fd5b505af1925050508015612a8557506040513d601f19601f82011682018060405250810190612a829190613166565b60015b612b08573d8060008114612ab5576040519150601f19603f3d011682016040523d82523d6000602084013e612aba565b606091505b50600081511415612b00576040517f08c379a0000000000000000000000000000000000000000000000000000000008152600401612af790613b5b565b60405180910390fd5b805181602001fd5b63150b7a0260e01b7bffffffffffffffffffffffffffffffffffffffffffffffffffffffff1916817bffffffffffffffffffffffffffffffffffffffffffffffffffffffff191614915050612b5d565b600190505b949350505050565b612b6f8383612be3565b612b7c60008484846129ce565b612bbb576040517f08c379a0000000000000000000000000000000000000000000000000000000008152600401612bb290613b5b565b60405180910390fd5b505050565b6000808273ffffffffffffffffffffffffffffffffffffffff163b119050919050565b600073ffffffffffffffffffffffffffffffffffffffff168273ffffffffffffffffffffffffffffffffffffffff161415612c53576040517f08c379a0000000000000000000000000000000000000000000000000000000008152600401612c4a90613c9b565b60405180910390fd5b612c5c81611dec565b15612c9c576040517f08c379a0000000000000000000000000000000000000000000000000000000008152600401612c9390613b9b565b60405180910390fd5b612ca8600083836129c4565b6001600360008473ffffffffffffffffffffffffffffffffffffffff1673ffffffffffffffffffffffffffffffffffffffff1681526020019081526020016000206000828254612cf89190613f15565b92505081905550816002600083815260200190815260200160002060006101000a81548173ffffffffffffffffffffffffffffffffffffffff021916908373ffffffffffffffffffffffffffffffffffffffff160217905550808273ffffffffffffffffffffffffffffffffffffffff16600073ffffffffffffffffffffffffffffffffffffffff167fddf252ad1be2c89b69c2b068fc378daa952ba7f163c4a11628f55a4df523b3ef60405160405180910390a4612db9600083836129c9565b5050565b6040518060a0016040528060608152602001606081526020016000815260200160008152602001600081525090565b6040518060c001604052806000815260200160608152602001606081526020016000815260200160008152602001600081525090565b828054612e2e906140e0565b90600052602060002090601f016020900481019282612e505760008555612e97565b82601f10612e6957805160ff1916838001178555612e97565b82800160010185558215612e97579182015b82811115612e96578251825591602001919060010190612e7b565b5b509050612ea49190612ea8565b5090565b5b80821115612ec1576000816000905550600101612ea9565b5090565b6000612ed8612ed384613e57565b613e32565b905082815260208101848484011115612ef057600080fd5b612efb84828561409e565b509392505050565b600081359050612f1281614899565b92915050565b600081359050612f27816148b0565b92915050565b600081359050612f3c816148c7565b92915050565b600081519050612f51816148c7565b92915050565b600082601f830112612f6857600080fd5b8135612f78848260208601612ec5565b91505092915050565b600081359050612f90816148de565b92915050565b600060208284031215612fa857600080fd5b6000612fb684828501612f03565b91505092915050565b60008060408385031215612fd257600080fd5b6000612fe085828601612f03565b9250506020612ff185828601612f03565b9150509250929050565b60008060006060848603121561301057600080fd5b600061301e86828701612f03565b935050602061302f86828701612f03565b925050604061304086828701612f81565b9150509250925092565b6000806000806080858703121561306057600080fd5b600061306e87828801612f03565b945050602061307f87828801612f03565b935050604061309087828801612f81565b925050606085013567ffffffffffffffff8111156130ad57600080fd5b6130b987828801612f57565b91505092959194509250565b600080604083850312156130d857600080fd5b60006130e685828601612f03565b92505060206130f785828601612f18565b9150509250929050565b6000806040838503121561311457600080fd5b600061312285828601612f03565b925050602061313385828601612f81565b9150509250929050565b60006020828403121561314f57600080fd5b600061315d84828501612f2d565b91505092915050565b60006020828403121561317857600080fd5b600061318684828501612f42565b91505092915050565b6000602082840312156131a157600080fd5b60006131af84828501612f81565b91505092915050565b60006131c483836136dd565b905092915050565b6131d58161402a565b82525050565b60006131e682613e98565b6131f08185613ec6565b93508360208202850161320285613e88565b8060005b8581101561323e578484038952815161321f85826131b8565b945061322a83613eb9565b925060208a01995050600181019050613206565b50829750879550505050505092915050565b6132598161403c565b82525050565b600061326a82613ea3565b6132748185613ed7565b93506132848185602086016140ad565b61328d81614279565b840191505092915050565b60006132a382613eae565b6132ad8185613ee8565b93506132bd8185602086016140ad565b6132c681614279565b840191505092915050565b60006132dc82613eae565b6132e68185613ef9565b93506132f68185602086016140ad565b6132ff81614279565b840191505092915050565b600061331582613eae565b61331f8185613f0a565b935061332f8185602086016140ad565b80840191505092915050565b6000613348600b83613f0a565b91506133538261428a565b600b82019050919050565b600061336b603283613ef9565b9150613376826142b3565b604082019050919050565b600061338e602583613ef9565b915061339982614302565b604082019050919050565b60006133b1601c83613ef9565b91506133bc82614351565b602082019050919050565b60006133d4600e83613f0a565b91506133df8261437a565b600e82019050919050565b60006133f7602483613ef9565b9150613402826143a3565b604082019050919050565b600061341a601983613ef9565b9150613425826143f2565b602082019050919050565b600061343d602c83613ef9565b91506134488261441b565b604082019050919050565b6000613460603883613ef9565b915061346b8261446a565b604082019050919050565b6000613483602a83613ef9565b915061348e826144b9565b604082019050919050565b60006134a6602983613ef9565b91506134b182614508565b604082019050919050565b60006134c9602c83613ef9565b91506134d482614557565b604082019050919050565b60006134ec606283613f0a565b91506134f7826145a6565b606282019050919050565b600061350f600483613f0a565b915061351a82614641565b600482019050919050565b6000613532602083613ef9565b915061353d8261466a565b602082019050919050565b6000613555602c83613ef9565b915061356082614693565b604082019050919050565b6000613578601c83613ef9565b9150613583826146e2565b602082019050919050565b600061359b600a83613f0a565b91506135a68261470b565b600a82019050919050565b60006135be602183613ef9565b91506135c982614734565b604082019050919050565b60006135e1601d83613f0a565b91506135ec82614783565b601d82019050919050565b6000613604603183613ef9565b915061360f826147ac565b604082019050919050565b6000613627603d83613f0a565b9150613632826147fb565b603d82019050919050565b600061364a602d83613f0a565b91506136558261484a565b602d82019050919050565b600060a083016000830151848203600086015261367d8282613298565b915050602083015184820360208601526136978282613298565b91505060408301516136ac60408601826137fd565b5060608301516136bf60608601826137fd565b5060808301516136d260808601826137fd565b508091505092915050565b600060c0830160008301516136f560008601826137fd565b506020830151848203602086015261370d8282613298565b915050604083015184820360408601526137278282613298565b915050606083015161373c60608601826137fd565b50608083015161374f60808601826137fd565b5060a083015161376260a08601826137fd565b508091505092915050565b600060c08301600083015161378560008601826137fd565b506020830151848203602086015261379d8282613298565b915050604083015184820360408601526137b78282613298565b91505060608301516137cc60608601826137fd565b5060808301516137df60808601826137fd565b5060a08301516137f260a08601826137fd565b508091505092915050565b61380681614094565b82525050565b61381581614094565b82525050565b60006138268261358e565b9150613832828961330a565b915061383d8261333b565b9150613849828861330a565b9150613854826134df565b9150613860828761330a565b915061386b8261361a565b9150613877828661330a565b9150613882826133c7565b915061388e828561330a565b91506138998261363d565b91506138a5828461330a565b91506138b082613502565b9150819050979650505050505050565b60006138cb826135d4565b91506138d7828461330a565b915081905092915050565b60006020820190506138f760008301846131cc565b92915050565b600060808201905061391260008301876131cc565b61391f60208301866131cc565b61392c604083018561380c565b818103606083015261393e818461325f565b905095945050505050565b600060608201905061395e60008301866131cc565b61396b602083018561380c565b613978604083018461380c565b949350505050565b6000602082019050818103600083015261399a81846131db565b905092915050565b60006020820190506139b76000830184613250565b92915050565b600060208201905081810360008301526139d781846132d1565b905092915050565b600060808201905081810360008301526139f981876132d1565b90508181036020830152613a0d81866132d1565b9050613a1c604083018561380c565b8181036060830152613a2e81846132d1565b905095945050505050565b60006080820190508181036000830152613a5381876132d1565b90508181036020830152613a6781866132d1565b9050613a76604083018561380c565b613a83606083018461380c565b95945050505050565b600060a0820190508181036000830152613aa681886132d1565b90508181036020830152613aba81876132d1565b9050613ac9604083018661380c565b613ad6606083018561380c565b613ae3608083018461380c565b9695505050505050565b60006040820190508181036000830152613b0781856132d1565b9050613b16602083018461380c565b9392505050565b60006060820190508181036000830152613b3781866132d1565b9050613b46602083018561380c565b613b53604083018461380c565b949350505050565b60006020820190508181036000830152613b748161335e565b9050919050565b60006020820190508181036000830152613b9481613381565b9050919050565b60006020820190508181036000830152613bb4816133a4565b9050919050565b60006020820190508181036000830152613bd4816133ea565b9050919050565b60006020820190508181036000830152613bf48161340d565b9050919050565b60006020820190508181036000830152613c1481613430565b9050919050565b60006020820190508181036000830152613c3481613453565b9050919050565b60006020820190508181036000830152613c5481613476565b9050919050565b60006020820190508181036000830152613c7481613499565b9050919050565b60006020820190508181036000830152613c94816134bc565b9050919050565b60006020820190508181036000830152613cb481613525565b9050919050565b60006020820190508181036000830152613cd481613548565b9050919050565b60006020820190508181036000830152613cf48161356b565b9050919050565b60006020820190508181036000830152613d14816135b1565b9050919050565b60006020820190508181036000830152613d34816135f7565b9050919050565b60006020820190508181036000830152613d558184613660565b905092915050565b60006020820190508181036000830152613d77818461376d565b905092915050565b6000602082019050613d94600083018461380c565b92915050565b600060c082019050613daf600083018961380c565b8181036020830152613dc181886132d1565b90508181036040830152613dd581876132d1565b9050613de4606083018661380c565b613df1608083018561380c565b613dfe60a083018461380c565b979650505050505050565b6000604082019050613e1e600083018561380c565b613e2b602083018461380c565b9392505050565b6000613e3c613e4d565b9050613e488282614112565b919050565b6000604051905090565b600067ffffffffffffffff821115613e7257613e7161424a565b5b613e7b82614279565b9050602081019050919050565b6000819050602082019050919050565b600081519050919050565b600081519050919050565b600081519050919050565b6000602082019050919050565b600082825260208201905092915050565b600082825260208201905092915050565b600082825260208201905092915050565b600082825260208201905092915050565b600081905092915050565b6000613f2082614094565b9150613f2b83614094565b9250827fffffffffffffffffffffffffffffffffffffffffffffffffffffffffffffffff03821115613f6057613f5f6141bd565b5b828201905092915050565b6000613f7682614094565b9150613f8183614094565b925082613f9157613f906141ec565b5b828204905092915050565b6000613fa782614094565b9150613fb283614094565b9250817fffffffffffffffffffffffffffffffffffffffffffffffffffffffffffffffff0483118215151615613feb57613fea6141bd565b5b828202905092915050565b600061400182614094565b915061400c83614094565b92508282101561401f5761401e6141bd565b5b828203905092915050565b600061403582614074565b9050919050565b60008115159050919050565b60007fffffffff0000000000000000000000000000000000000000000000000000000082169050919050565b600073ffffffffffffffffffffffffffffffffffffffff82169050919050565b6000819050919050565b82818337600083830152505050565b60005b838110156140cb5780820151818401526020810190506140b0565b838111156140da576000848401525b50505050565b600060028204905060018216806140f857607f821691505b6020821081141561410c5761410b61421b565b5b50919050565b61411b82614279565b810181811067ffffffffffffffff8211171561413a5761413961424a565b5b80604052505050565b600061414e82614094565b91507fffffffffffffffffffffffffffffffffffffffffffffffffffffffffffffffff821415614181576141806141bd565b5b600182019050919050565b600061419782614094565b91506141a283614094565b9250826141b2576141b16141ec565b5b828206905092915050565b7f4e487b7100000000000000000000000000000000000000000000000000000000600052601160045260246000fd5b7f4e487b7100000000000000000000000000000000000000000000000000000000600052601260045260246000fd5b7f4e487b7100000000000000000000000000000000000000000000000000000000600052602260045260246000fd5b7f4e487b7100000000000000000000000000000000000000000000000000000000600052604160045260246000fd5b6000601f19601f8301169050919050565b7f202d2d204e465420233a20000000000000000000000000000000000000000000600082015250565b7f4552433732313a207472616e7366657220746f206e6f6e20455243373231526560008201527f63656976657220696d706c656d656e7465720000000000000000000000000000602082015250565b7f4552433732313a207472616e736665722066726f6d20696e636f72726563742060008201527f6f776e6572000000000000000000000000000000000000000000000000000000602082015250565b7f4552433732313a20746f6b656e20616c7265616479206d696e74656400000000600082015250565b7f2c20226d61785f76616c7565223a000000000000000000000000000000000000600082015250565b7f4552433732313a207472616e7366657220746f20746865207a65726f2061646460008201527f7265737300000000000000000000000000000000000000000000000000000000602082015250565b7f4552433732313a20617070726f766520746f2063616c6c657200000000000000600082015250565b7f4552433732313a206f70657261746f7220717565727920666f72206e6f6e657860008201527f697374656e7420746f6b656e0000000000000000000000000000000000000000602082015250565b7f4552433732313a20617070726f76652063616c6c6572206973206e6f74206f7760008201527f6e6572206e6f7220617070726f76656420666f7220616c6c0000000000000000602082015250565b7f4552433732313a2062616c616e636520717565727920666f7220746865207a6560008201527f726f206164647265737300000000000000000000000000000000000000000000602082015250565b7f4552433732313a206f776e657220717565727920666f72206e6f6e657869737460008201527f656e7420746f6b656e0000000000000000000000000000000000000000000000602082015250565b7f4572726f723a20436861726163746572206d757374206861766520485020746f60008201527f2061747461636b20426f73730000000000000000000000000000000000000000602082015250565b7f222c20226465736372697074696f6e223a20225468697320697320616e204e4660008201527f542074686174206c6574732070656f706c6520706c617920696e20746865206760208201527f616d65204d657461766572736520536c6179657221222c2022696d616765223a60408201527f2022000000000000000000000000000000000000000000000000000000000000606082015250565b7f7d205d7d00000000000000000000000000000000000000000000000000000000600082015250565b7f4552433732313a206d696e7420746f20746865207a65726f2061646472657373600082015250565b7f4552433732313a20617070726f76656420717565727920666f72206e6f6e657860008201527f697374656e7420746f6b656e0000000000000000000000000000000000000000602082015250565b7f4572726f723a20426f7373206d7573742068617665204850203e203000000000600082015250565b7f7b226e616d65223a202200000000000000000000000000000000000000000000600082015250565b7f4552433732313a20617070726f76616c20746f2063757272656e74206f776e6560008201527f7200000000000000000000000000000000000000000000000000000000000000602082015250565b7f646174613a6170706c69636174696f6e2f6a736f6e3b6261736536342c000000600082015250565b7f4552433732313a207472616e736665722063616c6c6572206973206e6f74206f60008201527f776e6572206e6f7220617070726f766564000000000000000000000000000000602082015250565b7f222c202261747472696275746573223a205b207b202274726169745f7479706560008201527f223a20224865616c746820506f696e7473222c202276616c7565223a20000000602082015250565b7f7d2c207b202274726169745f74797065223a202241747461636b2044616d616760008201527f65222c202276616c7565223a2000000000000000000000000000000000000000602082015250565b6148a28161402a565b81146148ad57600080fd5b50565b6148b98161403c565b81146148c457600080fd5b50565b6148d081614048565b81146148db57600080fd5b50565b6148e781614094565b81146148f257600080fd5b5056fe0a426f73732025732068617320257320617320485020616e642025732061732041747461636b44616d6167654142434445464748494a4b4c4d4e4f505152535455565758595a6162636465666768696a6b6c6d6e6f707172737475767778797a303132333435363738392b2f4d696e746564204e465420772f20746f6b656e496420257320616e6420636861726163746572496e6465782025730a506c6179657220772f206368617263687465722025732061626f757420746f2061747461636b2068617320687020257320616e642025732061732061747461636b64616d61676520a2646970667358221220765a07808d6cc91cd630f1b6b9863869f86364b34fad2fe55f07cad1901c231264736f6c63430008010033446f6e6520696e697469616c697a696e6720257320772f2048502025732c20696d6720257354484953204953204d5920464952535420455645522047414d4520494e20534f4c4944495459212121212121212121446f6e6520696e697469616c697a696e6720626f737320257320772f2048502025732c20696d67202573",
  "linkReferences": {},
  "deployedLinkReferences": {}
}